{
  "_format": "hh-sol-artifact-1",
  "contractName": "CollateralManager",
  "sourceName": "src/modules/CollateralManager.sol",
  "abi": [
    {
      "inputs": [],
      "stateMutability": "nonpayable",
      "type": "constructor"
    },
    {
      "inputs": [],
      "name": "InsufficientCollateral",
      "type": "error"
    },
    {
      "inputs": [
        {
          "internalType": "address",
          "name": "owner",
          "type": "address"
        }
      ],
      "name": "OwnableInvalidOwner",
      "type": "error"
    },
    {
      "inputs": [
        {
          "internalType": "address",
          "name": "account",
          "type": "address"
        }
      ],
      "name": "OwnableUnauthorizedAccount",
      "type": "error"
    },
    {
      "inputs": [],
      "name": "ReentrancyGuardReentrantCall",
      "type": "error"
    },
    {
      "inputs": [],
      "name": "WithdrawBlocked",
      "type": "error"
    },
    {
      "inputs": [],
      "name": "ZeroAmount",
      "type": "error"
    },
    {
      "anonymous": false,
      "inputs": [
        {
          "indexed": true,
          "internalType": "address",
          "name": "user",
          "type": "address"
        },
        {
          "indexed": false,
          "internalType": "uint256",
          "name": "amount",
          "type": "uint256"
        }
      ],
      "name": "CollateralDeposited",
      "type": "event"
    },
    {
      "anonymous": false,
      "inputs": [
        {
          "indexed": true,
          "internalType": "address",
          "name": "user",
          "type": "address"
        },
        {
          "indexed": false,
          "internalType": "uint256",
          "name": "amount",
          "type": "uint256"
        }
      ],
      "name": "CollateralWithdrawn",
      "type": "event"
    },
    {
      "anonymous": false,
      "inputs": [
        {
          "indexed": true,
          "internalType": "address",
          "name": "previousOwner",
          "type": "address"
        },
        {
          "indexed": true,
          "internalType": "address",
          "name": "newOwner",
          "type": "address"
        }
      ],
      "name": "OwnershipTransferred",
      "type": "event"
    },
    {
      "inputs": [
        {
          "internalType": "address",
          "name": "",
          "type": "address"
        }
      ],
      "name": "authorizedContracts",
      "outputs": [
        {
          "internalType": "bool",
          "name": "",
          "type": "bool"
        }
      ],
      "stateMutability": "view",
      "type": "function"
    },
    {
      "inputs": [
        {
          "internalType": "address",
          "name": "user",
          "type": "address"
        },
        {
          "internalType": "uint256",
          "name": "amount",
          "type": "uint256"
        },
        {
          "internalType": "uint256",
          "name": "outstanding",
          "type": "uint256"
        }
      ],
      "name": "canWithdraw",
      "outputs": [
        {
          "internalType": "bool",
          "name": "",
          "type": "bool"
        }
      ],
      "stateMutability": "view",
      "type": "function"
    },
    {
      "inputs": [
        {
          "internalType": "address",
          "name": "user",
          "type": "address"
        },
        {
          "internalType": "uint256",
          "name": "amount",
          "type": "uint256"
        }
      ],
      "name": "deductCollateral",
      "outputs": [],
      "stateMutability": "nonpayable",
      "type": "function"
    },
    {
      "inputs": [],
      "name": "depositCollateral",
      "outputs": [],
      "stateMutability": "payable",
      "type": "function"
    },
    {
      "inputs": [
        {
          "internalType": "address",
          "name": "user",
          "type": "address"
        }
      ],
      "name": "getCollateral",
      "outputs": [
        {
          "internalType": "uint256",
          "name": "",
          "type": "uint256"
        }
      ],
      "stateMutability": "view",
      "type": "function"
    },
    {
      "inputs": [],
      "name": "owner",
      "outputs": [
        {
          "internalType": "address",
          "name": "",
          "type": "address"
        }
      ],
      "stateMutability": "view",
      "type": "function"
    },
    {
      "inputs": [],
      "name": "renounceOwnership",
      "outputs": [],
      "stateMutability": "nonpayable",
      "type": "function"
    },
    {
      "inputs": [
        {
          "internalType": "address",
          "name": "contractAddress",
          "type": "address"
        },
        {
          "internalType": "bool",
          "name": "authorized",
          "type": "bool"
        }
      ],
      "name": "setAuthorization",
      "outputs": [],
      "stateMutability": "nonpayable",
      "type": "function"
    },
    {
      "inputs": [
        {
          "internalType": "address",
          "name": "newOwner",
          "type": "address"
        }
      ],
      "name": "transferOwnership",
      "outputs": [],
      "stateMutability": "nonpayable",
      "type": "function"
    },
    {
      "inputs": [
        {
          "internalType": "uint256",
          "name": "amount",
          "type": "uint256"
        }
      ],
      "name": "withdrawCollateral",
      "outputs": [],
      "stateMutability": "nonpayable",
      "type": "function"
    }
  ],
  "bytecode": "0x6080604052348015600e575f5ffd5b503380603357604051631e4fbdf760e01b81525f600482015260240160405180910390fd5b603a816043565b50600180556092565b5f80546001600160a01b038381166001600160a01b0319831681178455604051919092169283917f8be0079c531659141344cd1fd0a4f28419497f9722a3daafe3b4186f6b6457e09190a35050565b6107cf8061009f5f395ff3fe60806040526004361061008f575f3560e01c80638da5cb5b116100575780638da5cb5b146101235780639b56d6c914610149578063d5b9221b1461018b578063eecea000146101b9578063f2fde38b146101d8575f5ffd5b80631e22f90114610093578063326e71c1146100c75780636112fe2e146100e85780636f75814014610107578063715018a61461010f575b5f5ffd5b34801561009e575f5ffd5b506100b26100ad366004610681565b6101f7565b60405190151581526020015b60405180910390f35b3480156100d2575f5ffd5b506100e66100e13660046106b1565b6102ad565b005b3480156100f3575f5ffd5b506100e66101023660046106d9565b6103a0565b6100e66104b9565b34801561011a575f5ffd5b506100e6610544565b34801561012e575f5ffd5b505f546040516001600160a01b0390911681526020016100be565b348015610154575f5ffd5b5061017d6101633660046106f0565b6001600160a01b03165f9081526002602052604090205490565b6040519081526020016100be565b348015610196575f5ffd5b506100b26101a53660046106f0565b60036020525f908152604090205460ff1681565b3480156101c4575f5ffd5b506100e66101d3366004610709565b610555565b3480156101e3575f5ffd5b506100e66101f23660046106f0565b610587565b335f9081526003602052604081205460ff168061021d57505f546001600160a01b031633145b61025d5760405162461bcd60e51b815260206004820152600c60248201526b155b985d5d1a1bdc9a5e995960a21b60448201526064015b60405180910390fd5b6001600160a01b0384165f9081526002602052604090205480841115610286575f9150506102a6565b5f6102918583610756565b90508061029f85600261076f565b1115925050505b9392505050565b335f9081526003602052604090205460ff16806102d357505f546001600160a01b031633145b61030e5760405162461bcd60e51b815260206004820152600c60248201526b155b985d5d1a1bdc9a5e995960a21b6044820152606401610254565b6001600160a01b0382165f90815260026020526040902054808211156103765760405162461bcd60e51b815260206004820152601760248201527f496e73756666696369656e7420636f6c6c61746572616c0000000000000000006044820152606401610254565b6103808282610756565b6001600160a01b039093165f908152600260205260409020929092555050565b6103a86105c1565b805f036103c857604051631f2a200560e01b815260040160405180910390fd5b335f90815260026020526040902054808211156103f857604051633a23d82560e01b815260040160405180910390fd5b6104028282610756565b335f8181526002602052604080822093909355915184908381818185875af1925050503d805f811461044f576040519150601f19603f3d011682016040523d82523d5f602084013e610454565b606091505b505090508061047657604051630558731360e01b815260040160405180910390fd5b60405183815233907fc30fcfbcaac9e0deffa719714eaa82396ff506a0d0d0eebe170830177288715d9060200160405180910390a250506104b660018055565b50565b6104c16105c1565b345f036104e157604051631f2a200560e01b815260040160405180910390fd5b335f90815260026020526040812080543492906104ff908490610786565b909155505060405134815233907fd7243f6f8212d5188fd054141cf6ea89cfc0d91facb8c3afe2f88a13584801429060200160405180910390a261054260018055565b565b61054c6105eb565b6105425f610617565b61055d6105eb565b6001600160a01b03919091165f908152600360205260409020805460ff1916911515919091179055565b61058f6105eb565b6001600160a01b0381166105b857604051631e4fbdf760e01b81525f6004820152602401610254565b6104b681610617565b6002600154036105e457604051633ee5aeb560e01b815260040160405180910390fd5b6002600155565b5f546001600160a01b031633146105425760405163118cdaa760e01b8152336004820152602401610254565b5f80546001600160a01b038381166001600160a01b0319831681178455604051919092169283917f8be0079c531659141344cd1fd0a4f28419497f9722a3daafe3b4186f6b6457e09190a35050565b80356001600160a01b038116811461067c575f5ffd5b919050565b5f5f5f60608486031215610693575f5ffd5b61069c84610666565b95602085013595506040909401359392505050565b5f5f604083850312156106c2575f5ffd5b6106cb83610666565b946020939093013593505050565b5f602082840312156106e9575f5ffd5b5035919050565b5f60208284031215610700575f5ffd5b6102a682610666565b5f5f6040838503121561071a575f5ffd5b61072383610666565b915060208301358015158114610737575f5ffd5b809150509250929050565b634e487b7160e01b5f52601160045260245ffd5b8181038181111561076957610769610742565b92915050565b808202811582820484141761076957610769610742565b808201808211156107695761076961074256fea2646970667358221220799cf4e859495dff1a90fdf6b3c614b548524fa6e5b7277d7860fc659823ae1264736f6c634300081c0033",
  "linkReferences": {},
  "deployedLinkReferences": {}
}