{
  "_format": "hh-sol-artifact-1",
  "contractName": "CreditScoring",
  "sourceName": "src/modules/CreditScoring.sol",
  "abi": [
    {
      "inputs": [],
      "stateMutability": "nonpayable",
      "type": "constructor"
    },
    {
      "inputs": [],
      "name": "InvalidRiskScore",
      "type": "error"
    },
    {
      "inputs": [],
      "name": "NoProfile",
      "type": "error"
    },
    {
      "inputs": [
        {
          "internalType": "address",
          "name": "owner",
          "type": "address"
        }
      ],
      "name": "OwnableInvalidOwner",
      "type": "error"
    },
    {
      "inputs": [
        {
          "internalType": "address",
          "name": "account",
          "type": "address"
        }
      ],
      "name": "OwnableUnauthorizedAccount",
      "type": "error"
    },
    {
      "anonymous": false,
      "inputs": [
        {
          "indexed": true,
          "internalType": "address",
          "name": "previousOwner",
          "type": "address"
        },
        {
          "indexed": true,
          "internalType": "address",
          "name": "newOwner",
          "type": "address"
        }
      ],
      "name": "OwnershipTransferred",
      "type": "event"
    },
    {
      "anonymous": false,
      "inputs": [
        {
          "indexed": true,
          "internalType": "address",
          "name": "user",
          "type": "address"
        }
      ],
      "name": "ProfileSubmitted",
      "type": "event"
    },
    {
      "anonymous": false,
      "inputs": [
        {
          "indexed": true,
          "internalType": "address",
          "name": "user",
          "type": "address"
        }
      ],
      "name": "ProfileUpdated",
      "type": "event"
    },
    {
      "inputs": [
        {
          "internalType": "address",
          "name": "",
          "type": "address"
        }
      ],
      "name": "authorizedContracts",
      "outputs": [
        {
          "internalType": "bool",
          "name": "",
          "type": "bool"
        }
      ],
      "stateMutability": "view",
      "type": "function"
    },
    {
      "inputs": [
        {
          "internalType": "address",
          "name": "user",
          "type": "address"
        }
      ],
      "name": "getProfileMetadata",
      "outputs": [
        {
          "internalType": "uint256",
          "name": "submittedAt",
          "type": "uint256"
        },
        {
          "internalType": "uint256",
          "name": "updatedAt",
          "type": "uint256"
        }
      ],
      "stateMutability": "view",
      "type": "function"
    },
    {
      "inputs": [
        {
          "internalType": "address",
          "name": "user",
          "type": "address"
        }
      ],
      "name": "getRiskScore",
      "outputs": [
        {
          "internalType": "euint16",
          "name": "",
          "type": "bytes32"
        }
      ],
      "stateMutability": "view",
      "type": "function"
    },
    {
      "inputs": [
        {
          "internalType": "address",
          "name": "user",
          "type": "address"
        }
      ],
      "name": "hasProfile",
      "outputs": [
        {
          "internalType": "bool",
          "name": "",
          "type": "bool"
        }
      ],
      "stateMutability": "view",
      "type": "function"
    },
    {
      "inputs": [],
      "name": "owner",
      "outputs": [
        {
          "internalType": "address",
          "name": "",
          "type": "address"
        }
      ],
      "stateMutability": "view",
      "type": "function"
    },
    {
      "inputs": [],
      "name": "protocolId",
      "outputs": [
        {
          "internalType": "uint256",
          "name": "",
          "type": "uint256"
        }
      ],
      "stateMutability": "pure",
      "type": "function"
    },
    {
      "inputs": [
        {
          "internalType": "address",
          "name": "user",
          "type": "address"
        },
        {
          "internalType": "bytes",
          "name": "publicKey",
          "type": "bytes"
        }
      ],
      "name": "reencryptRiskScore",
      "outputs": [
        {
          "internalType": "bytes",
          "name": "",
          "type": "bytes"
        }
      ],
      "stateMutability": "view",
      "type": "function"
    },
    {
      "inputs": [],
      "name": "renounceOwnership",
      "outputs": [],
      "stateMutability": "nonpayable",
      "type": "function"
    },
    {
      "inputs": [
        {
          "internalType": "address",
          "name": "contractAddress",
          "type": "address"
        },
        {
          "internalType": "bool",
          "name": "authorized",
          "type": "bool"
        }
      ],
      "name": "setAuthorization",
      "outputs": [],
      "stateMutability": "nonpayable",
      "type": "function"
    },
    {
      "inputs": [
        {
          "internalType": "externalEuint16",
          "name": "riskHandle",
          "type": "bytes32"
        },
        {
          "internalType": "bytes",
          "name": "proof",
          "type": "bytes"
        }
      ],
      "name": "submitProfile",
      "outputs": [],
      "stateMutability": "nonpayable",
      "type": "function"
    },
    {
      "inputs": [
        {
          "internalType": "address",
          "name": "newOwner",
          "type": "address"
        }
      ],
      "name": "transferOwnership",
      "outputs": [],
      "stateMutability": "nonpayable",
      "type": "function"
    },
    {
      "inputs": [
        {
          "internalType": "externalEuint16",
          "name": "riskHandle",
          "type": "bytes32"
        },
        {
          "internalType": "bytes",
          "name": "proof",
          "type": "bytes"
        }
      ],
      "name": "updateProfile",
      "outputs": [],
      "stateMutability": "nonpayable",
      "type": "function"
    }
  ],
  "bytecode": "0x608060405234801561000f575f5ffd5b503361018b6100af604080516080810182525f808252602082018190529181018290526060810191909152506040805160808101825273687820221192c5b662b25367f70076a37bc79b6c815273848b0066793bcc60346da1f49049357399b8d595602082015273a02cda4ca3a71d7c46997716f4283aa851c2881291810191909152731364cbbf2cdf5032c47d8226a6f6fbd2afcdacac606082015290565b80517f9e7b61f58c47dc699ac88507c4f5bb9f121c03808c5676a8078fe583e464970080546001600160a01b03199081166001600160a01b039384161790915560208301517f9e7b61f58c47dc699ac88507c4f5bb9f121c03808c5676a8078fe583e46497018054831691841691909117905560408301517f9e7b61f58c47dc699ac88507c4f5bb9f121c03808c5676a8078fe583e46497028054831691841691909117905560608301517f9e7b61f58c47dc699ac88507c4f5bb9f121c03808c5676a8078fe583e46497038054909216921691909117905550565b6001600160a01b0381166101b857604051631e4fbdf760e01b81525f600482015260240160405180910390fd5b6101c1816101c7565b50610216565b5f80546001600160a01b038381166001600160a01b0319831681178455604051919092169283917f8be0079c531659141344cd1fd0a4f28419497f9722a3daafe3b4186f6b6457e09190a35050565b610a5e806102235f395ff3fe608060405234801561000f575f5ffd5b50600436106100b1575f3560e01c8063ca0b74e11161006e578063ca0b74e114610177578063d5b9221b1461018a578063da1f12ab146101ac578063dc08706d146101be578063eecea000146101d1578063f2fde38b146101e4575f5ffd5b8063403e2707146100b55780634917e507146100e2578063715018a61461010257806381bb77a41461010c5780638da5cb5b1461011f578063a787c80b14610139575b5f5ffd5b6100c86100c3366004610866565b6101f7565b604080519283526020830191909152015b60405180910390f35b6100f56100f03660046108c4565b61025d565b6040516100d99190610941565b61010a61030e565b005b61010a61011a366004610953565b610321565b5f546040516001600160a01b0390911681526020016100d9565b610167610147366004610866565b6001600160a01b03165f9081526001602052604090206003015460ff1690565b60405190151581526020016100d9565b61010a610185366004610953565b6103ee565b610167610198366004610866565b60026020525f908152604090205460ff1681565b6127115b6040519081526020016100d9565b6101b06101cc366004610866565b6104cd565b61010a6101df366004610982565b610588565b61010a6101f2366004610866565b6105ba565b6001600160a01b0381165f90815260016020526040812060030154819060ff1661023457604051636f86092760e01b815260040160405180910390fd5b50506001600160a01b03165f908152600160208190526040909120908101546002909101549091565b6001600160a01b0383165f9081526001602052604090206003015460609060ff1661029b57604051636f86092760e01b815260040160405180910390fd5b6001600160a01b03841633146102f85760405162461bcd60e51b815260206004820152601a60248201527f43616e206f6e6c792064656372797074206f776e2073636f726500000000000060448201526064015b60405180910390fd5b5060408051602081019091525f81529392505050565b6103166105f7565b61031f5f610623565b565b335f9081526001602052604090206003015460ff1661035357604051636f86092760e01b815260040160405180910390fd5b5f6103938484848080601f0160208091040260200160405190810160405280939291908181526020018383808284375f9201919091525061067292505050565b905061039e81610686565b506103a98133610695565b50335f8181526001602052604080822084815542600290910155517fbe4ec58a792f909e102ee3d745d0c3b34a4d437a54d903c4db098d31c556422f9190a250505050565b5f61042e8484848080601f0160208091040260200160405190810160405280939291908181526020018383808284375f9201919091525061067292505050565b905061043981610686565b506104448133610695565b5060408051608081018252828152426020808301828152838501928352600160608501818152335f81815294839052878520965187559251918601919091559251600285015591516003909301805460ff19169315159390931790925591517ff10d3bc2e50ffdaa9ac346b659e7e62ea8b70d0d2eb6bd87654abd8643dff5929190a250505050565b335f9081526002602052604081205460ff16806104f357505f546001600160a01b031633145b61052e5760405162461bcd60e51b815260206004820152600c60248201526b155b985d5d1a1bdc9a5e995960a21b60448201526064016102ef565b6001600160a01b0382165f9081526001602052604090206003015460ff1661056957604051636f86092760e01b815260040160405180910390fd5b506001600160a01b0381165f908152600160205260409020545b919050565b6105906105f7565b6001600160a01b03919091165f908152600260205260409020805460ff1916911515919091179055565b6105c26105f7565b6001600160a01b0381166105eb57604051631e4fbdf760e01b81525f60048201526024016102ef565b6105f481610623565b50565b5f546001600160a01b0316331461031f5760405163118cdaa760e01b81523360048201526024016102ef565b5f80546001600160a01b038381166001600160a01b0319831681178455604051919092169283917f8be0079c531659141344cd1fd0a4f28419497f9722a3daafe3b4186f6b6457e09190a35050565b5f61067f838360036106a7565b9392505050565b5f61069182306107c7565b5090565b5f6106a083836107c7565b5090919050565b7f9e7b61f58c47dc699ac88507c4f5bb9f121c03808c5676a8078fe583e46497015460405163196d0b9b60e01b81525f917f9e7b61f58c47dc699ac88507c4f5bb9f121c03808c5676a8078fe583e4649700916001600160a01b039091169063196d0b9b906107209088903390899089906004016109bb565b6020604051808303815f875af115801561073c573d5f5f3e3d5ffd5b505050506040513d601f19601f820116820180604052508101906107609190610a11565b8154604051630f8e573b60e21b8152600481018390523360248201529193506001600160a01b031690633e395cec906044015f604051808303815f87803b1580156107a9575f5ffd5b505af11580156107bb573d5f5f3e3d5ffd5b50505050509392505050565b5f7f9e7b61f58c47dc699ac88507c4f5bb9f121c03808c5676a8078fe583e46497008054604051635ca4b5b160e11b8152600481018690526001600160a01b03858116602483015292935091169063b9496b62906044015f604051808303815f87803b158015610835575f5ffd5b505af1158015610847573d5f5f3e3d5ffd5b50505050505050565b80356001600160a01b0381168114610583575f5ffd5b5f60208284031215610876575f5ffd5b61067f82610850565b5f5f83601f84011261088f575f5ffd5b50813567ffffffffffffffff8111156108a6575f5ffd5b6020830191508360208285010111156108bd575f5ffd5b9250929050565b5f5f5f604084860312156108d6575f5ffd5b6108df84610850565b9250602084013567ffffffffffffffff8111156108fa575f5ffd5b6109068682870161087f565b9497909650939450505050565b5f81518084528060208401602086015e5f602082860101526020601f19601f83011685010191505092915050565b602081525f61067f6020830184610913565b5f5f5f60408486031215610965575f5ffd5b83359250602084013567ffffffffffffffff8111156108fa575f5ffd5b5f5f60408385031215610993575f5ffd5b61099c83610850565b9150602083013580151581146109b0575f5ffd5b809150509250929050565b8481526001600160a01b03841660208201526080604082018190525f906109e490830185610913565b905060548310610a0257634e487b7160e01b5f52602160045260245ffd5b82606083015295945050505050565b5f60208284031215610a21575f5ffd5b505191905056fea2646970667358221220329d146199b7b0dae3927c157fd4cc77a8144e52500af2f88d9026ff497ad06164736f6c634300081c0033",
  "linkReferences": {},
  "deployedLinkReferences": {}
}