{
  "_format": "hh-sol-artifact-1",
  "contractName": "FHELendingV2",
  "sourceName": "src/FHELendingV2.sol",
  "abi": [
    {
      "inputs": [
        {
          "internalType": "address",
          "name": "_collateralManager",
          "type": "address"
        },
        {
          "internalType": "address",
          "name": "_creditScoring",
          "type": "address"
        },
        {
          "internalType": "address",
          "name": "_loanManager",
          "type": "address"
        },
        {
          "internalType": "address",
          "name": "_liquidityPool",
          "type": "address"
        }
      ],
      "stateMutability": "nonpayable",
      "type": "constructor"
    },
    {
      "inputs": [],
      "name": "InvalidModule",
      "type": "error"
    },
    {
      "inputs": [],
      "name": "ModuleNotSet",
      "type": "error"
    },
    {
      "inputs": [
        {
          "internalType": "address",
          "name": "owner",
          "type": "address"
        }
      ],
      "name": "OwnableInvalidOwner",
      "type": "error"
    },
    {
      "inputs": [
        {
          "internalType": "address",
          "name": "account",
          "type": "address"
        }
      ],
      "name": "OwnableUnauthorizedAccount",
      "type": "error"
    },
    {
      "inputs": [],
      "name": "ReentrancyGuardReentrantCall",
      "type": "error"
    },
    {
      "anonymous": false,
      "inputs": [
        {
          "indexed": true,
          "internalType": "address",
          "name": "borrower",
          "type": "address"
        },
        {
          "indexed": false,
          "internalType": "uint256",
          "name": "requestId",
          "type": "uint256"
        },
        {
          "indexed": false,
          "internalType": "uint256",
          "name": "amount",
          "type": "uint256"
        }
      ],
      "name": "LoanDisbursed",
      "type": "event"
    },
    {
      "anonymous": false,
      "inputs": [
        {
          "indexed": true,
          "internalType": "string",
          "name": "moduleName",
          "type": "string"
        },
        {
          "indexed": true,
          "internalType": "address",
          "name": "oldAddress",
          "type": "address"
        },
        {
          "indexed": true,
          "internalType": "address",
          "name": "newAddress",
          "type": "address"
        }
      ],
      "name": "ModuleUpdated",
      "type": "event"
    },
    {
      "anonymous": false,
      "inputs": [
        {
          "indexed": true,
          "internalType": "address",
          "name": "previousOwner",
          "type": "address"
        },
        {
          "indexed": true,
          "internalType": "address",
          "name": "newOwner",
          "type": "address"
        }
      ],
      "name": "OwnershipTransferred",
      "type": "event"
    },
    {
      "anonymous": false,
      "inputs": [
        {
          "indexed": true,
          "internalType": "address",
          "name": "borrower",
          "type": "address"
        },
        {
          "indexed": false,
          "internalType": "uint256",
          "name": "amount",
          "type": "uint256"
        }
      ],
      "name": "RepaymentProcessed",
      "type": "event"
    },
    {
      "inputs": [],
      "name": "addLiquidity",
      "outputs": [],
      "stateMutability": "payable",
      "type": "function"
    },
    {
      "inputs": [
        {
          "internalType": "uint256",
          "name": "requestId",
          "type": "uint256"
        },
        {
          "internalType": "uint256",
          "name": "amountPlain",
          "type": "uint256"
        },
        {
          "internalType": "uint8",
          "name": "decryptedApproval",
          "type": "uint8"
        }
      ],
      "name": "claimLoan",
      "outputs": [],
      "stateMutability": "nonpayable",
      "type": "function"
    },
    {
      "inputs": [],
      "name": "collateralManager",
      "outputs": [
        {
          "internalType": "contract ICollateralManager",
          "name": "",
          "type": "address"
        }
      ],
      "stateMutability": "view",
      "type": "function"
    },
    {
      "inputs": [],
      "name": "creditScoring",
      "outputs": [
        {
          "internalType": "contract ICreditScoring",
          "name": "",
          "type": "address"
        }
      ],
      "stateMutability": "view",
      "type": "function"
    },
    {
      "inputs": [],
      "name": "depositCollateral",
      "outputs": [],
      "stateMutability": "payable",
      "type": "function"
    },
    {
      "inputs": [
        {
          "internalType": "address",
          "name": "user",
          "type": "address"
        }
      ],
      "name": "getCollateral",
      "outputs": [
        {
          "internalType": "uint256",
          "name": "",
          "type": "uint256"
        }
      ],
      "stateMutability": "view",
      "type": "function"
    },
    {
      "inputs": [
        {
          "internalType": "address",
          "name": "user",
          "type": "address"
        }
      ],
      "name": "getLatestRequestId",
      "outputs": [
        {
          "internalType": "uint256",
          "name": "",
          "type": "uint256"
        }
      ],
      "stateMutability": "view",
      "type": "function"
    },
    {
      "inputs": [],
      "name": "getModules",
      "outputs": [
        {
          "internalType": "address",
          "name": "",
          "type": "address"
        },
        {
          "internalType": "address",
          "name": "",
          "type": "address"
        },
        {
          "internalType": "address",
          "name": "",
          "type": "address"
        },
        {
          "internalType": "address",
          "name": "",
          "type": "address"
        }
      ],
      "stateMutability": "view",
      "type": "function"
    },
    {
      "inputs": [
        {
          "internalType": "address",
          "name": "user",
          "type": "address"
        }
      ],
      "name": "getOutstandingDebt",
      "outputs": [
        {
          "internalType": "uint256",
          "name": "",
          "type": "uint256"
        }
      ],
      "stateMutability": "view",
      "type": "function"
    },
    {
      "inputs": [],
      "name": "getPoolLiquidity",
      "outputs": [
        {
          "internalType": "uint256",
          "name": "",
          "type": "uint256"
        }
      ],
      "stateMutability": "view",
      "type": "function"
    },
    {
      "inputs": [
        {
          "internalType": "address",
          "name": "user",
          "type": "address"
        }
      ],
      "name": "hasProfile",
      "outputs": [
        {
          "internalType": "bool",
          "name": "",
          "type": "bool"
        }
      ],
      "stateMutability": "view",
      "type": "function"
    },
    {
      "inputs": [],
      "name": "liquidityPool",
      "outputs": [
        {
          "internalType": "contract ILiquidityPool",
          "name": "",
          "type": "address"
        }
      ],
      "stateMutability": "view",
      "type": "function"
    },
    {
      "inputs": [],
      "name": "loanManager",
      "outputs": [
        {
          "internalType": "contract ILoanManager",
          "name": "",
          "type": "address"
        }
      ],
      "stateMutability": "view",
      "type": "function"
    },
    {
      "inputs": [],
      "name": "owner",
      "outputs": [
        {
          "internalType": "address",
          "name": "",
          "type": "address"
        }
      ],
      "stateMutability": "view",
      "type": "function"
    },
    {
      "inputs": [],
      "name": "protocolId",
      "outputs": [
        {
          "internalType": "uint256",
          "name": "",
          "type": "uint256"
        }
      ],
      "stateMutability": "pure",
      "type": "function"
    },
    {
      "inputs": [
        {
          "internalType": "bytes",
          "name": "publicKey",
          "type": "bytes"
        }
      ],
      "name": "reencryptLatestAmount",
      "outputs": [
        {
          "internalType": "bytes",
          "name": "",
          "type": "bytes"
        }
      ],
      "stateMutability": "view",
      "type": "function"
    },
    {
      "inputs": [
        {
          "internalType": "bytes",
          "name": "publicKey",
          "type": "bytes"
        }
      ],
      "name": "reencryptLatestApproval",
      "outputs": [
        {
          "internalType": "bytes",
          "name": "",
          "type": "bytes"
        }
      ],
      "stateMutability": "view",
      "type": "function"
    },
    {
      "inputs": [
        {
          "internalType": "uint256",
          "name": "amount",
          "type": "uint256"
        }
      ],
      "name": "removeLiquidity",
      "outputs": [],
      "stateMutability": "nonpayable",
      "type": "function"
    },
    {
      "inputs": [],
      "name": "renounceOwnership",
      "outputs": [],
      "stateMutability": "nonpayable",
      "type": "function"
    },
    {
      "inputs": [],
      "name": "repay",
      "outputs": [],
      "stateMutability": "payable",
      "type": "function"
    },
    {
      "inputs": [
        {
          "internalType": "externalEuint64",
          "name": "amountHandle",
          "type": "bytes32"
        },
        {
          "internalType": "bytes",
          "name": "proof",
          "type": "bytes"
        }
      ],
      "name": "requestLoan",
      "outputs": [
        {
          "internalType": "uint256",
          "name": "requestId",
          "type": "uint256"
        }
      ],
      "stateMutability": "nonpayable",
      "type": "function"
    },
    {
      "inputs": [
        {
          "internalType": "externalEuint16",
          "name": "riskHandle",
          "type": "bytes32"
        },
        {
          "internalType": "bytes",
          "name": "proof",
          "type": "bytes"
        }
      ],
      "name": "submitProfile",
      "outputs": [],
      "stateMutability": "nonpayable",
      "type": "function"
    },
    {
      "inputs": [
        {
          "internalType": "address",
          "name": "newOwner",
          "type": "address"
        }
      ],
      "name": "transferOwnership",
      "outputs": [],
      "stateMutability": "nonpayable",
      "type": "function"
    },
    {
      "inputs": [
        {
          "internalType": "string",
          "name": "moduleName",
          "type": "string"
        },
        {
          "internalType": "address",
          "name": "newAddress",
          "type": "address"
        }
      ],
      "name": "updateModule",
      "outputs": [],
      "stateMutability": "nonpayable",
      "type": "function"
    },
    {
      "inputs": [
        {
          "internalType": "externalEuint16",
          "name": "riskHandle",
          "type": "bytes32"
        },
        {
          "internalType": "bytes",
          "name": "proof",
          "type": "bytes"
        }
      ],
      "name": "updateProfile",
      "outputs": [],
      "stateMutability": "nonpayable",
      "type": "function"
    },
    {
      "inputs": [
        {
          "internalType": "uint256",
          "name": "amount",
          "type": "uint256"
        }
      ],
      "name": "withdrawCollateral",
      "outputs": [],
      "stateMutability": "nonpayable",
      "type": "function"
    }
  ],
  "bytecode": "0x608060405234801561000f575f5ffd5b50604051611c36380380611c3683398101604081905261002e916103fa565b336101a96100cd604080516080810182525f808252602082018190529181018290526060810191909152506040805160808101825273687820221192c5b662b25367f70076a37bc79b6c815273848b0066793bcc60346da1f49049357399b8d595602082015273a02cda4ca3a71d7c46997716f4283aa851c2881291810191909152731364cbbf2cdf5032c47d8226a6f6fbd2afcdacac606082015290565b80517f9e7b61f58c47dc699ac88507c4f5bb9f121c03808c5676a8078fe583e464970080546001600160a01b03199081166001600160a01b039384161790915560208301517f9e7b61f58c47dc699ac88507c4f5bb9f121c03808c5676a8078fe583e46497018054831691841691909117905560408301517f9e7b61f58c47dc699ac88507c4f5bb9f121c03808c5676a8078fe583e46497028054831691841691909117905560608301517f9e7b61f58c47dc699ac88507c4f5bb9f121c03808c5676a8078fe583e46497038054909216921691909117905550565b6001600160a01b0381166101d757604051631e4fbdf760e01b81525f60048201526024015b60405180910390fd5b6101e081610390565b50600180556001600160a01b03841661023b5760405162461bcd60e51b815260206004820152601a60248201527f496e76616c696420636f6c6c61746572616c206d616e6167657200000000000060448201526064016101ce565b6001600160a01b0383166102915760405162461bcd60e51b815260206004820152601660248201527f496e76616c6964206372656469742073636f72696e670000000000000000000060448201526064016101ce565b6001600160a01b0382166102e75760405162461bcd60e51b815260206004820152601460248201527f496e76616c6964206c6f616e206d616e6167657200000000000000000000000060448201526064016101ce565b6001600160a01b03811661033d5760405162461bcd60e51b815260206004820152601660248201527f496e76616c6964206c697175696469747920706f6f6c0000000000000000000060448201526064016101ce565b600280546001600160a01b039586166001600160a01b031991821617909155600380549486169482169490941790935560048054928516928416929092179091556005805491909316911617905561044b565b5f80546001600160a01b038381166001600160a01b0319831681178455604051919092169283917f8be0079c531659141344cd1fd0a4f28419497f9722a3daafe3b4186f6b6457e09190a35050565b80516001600160a01b03811681146103f5575f5ffd5b919050565b5f5f5f5f6080858703121561040d575f5ffd5b610416856103df565b9350610424602086016103df565b9250610432604086016103df565b9150610440606086016103df565b905092959194509250565b6117de806104585f395ff3fe60806040526004361061017b575f3560e01c806398f244d4116100cd578063b3ccbcfe11610087578063e8078d9411610062578063e8078d941461044e578063f2fde38b14610456578063f9c1102414610475578063fea4147714610494575f5ffd5b8063b3ccbcfe146103fc578063ca0b74e11461041b578063da1f12ab1461043a575f5ffd5b806398f244d4146103055780639b56d6c9146103245780639c8f9f2314610343578063a5b1b09714610362578063a787c80b14610381578063b2494df3146103b0575f5ffd5b80636112fe2e11610138578063715018a611610113578063715018a61461029757806381bb77a4146102ab5780638da5cb5b146102ca5780639883688f146102e6575f5ffd5b80636112fe2e14610251578063665a11ca146102705780636f7581401461028f575f5ffd5b80631ea6cabc1461017f57806323be345c146101b15780633adb2dee146101e8578063402d8883146102145780635360e6b91461021e57806356bb7c5114610232575b5f5ffd5b34801561018a575f5ffd5b5061019e61019936600461143a565b6104b3565b6040519081526020015b60405180910390f35b3480156101bc575f5ffd5b506002546101d0906001600160a01b031681565b6040516001600160a01b0390911681526020016101a8565b3480156101f3575f5ffd5b50610207610202366004611498565b61052b565b6040516101a891906114d7565b61021c610618565b005b348015610229575f5ffd5b5061019e6108bc565b34801561023d575f5ffd5b5061019e61024c36600461143a565b61092c565b34801561025c575f5ffd5b5061021c61026b36600461150c565b610963565b34801561027b575f5ffd5b506005546101d0906001600160a01b031681565b61021c610b14565b3480156102a2575f5ffd5b5061021c610b89565b3480156102b6575f5ffd5b5061021c6102c5366004611523565b610b9a565b3480156102d5575f5ffd5b505f546001600160a01b03166101d0565b3480156102f1575f5ffd5b506003546101d0906001600160a01b031681565b348015610310575f5ffd5b5061020761031f366004611498565b610c00565b34801561032f575f5ffd5b5061019e61033e36600461143a565b610ca4565b34801561034e575f5ffd5b5061021c61035d36600461150c565b610cd6565b34801561036d575f5ffd5b5061021c61037c3660046115d7565b610d40565b34801561038c575f5ffd5b506103a061039b36600461143a565b610fef565b60405190151581526020016101a8565b3480156103bb575f5ffd5b50600254600354600454600554604080516001600160a01b0395861681529385166020850152918416918301919091529190911660608201526080016101a8565b348015610407575f5ffd5b506004546101d0906001600160a01b031681565b348015610426575f5ffd5b5061021c610435366004611523565b61105b565b348015610445575f5ffd5b5061271161019e565b61021c61108f565b348015610461575f5ffd5b5061021c61047036600461143a565b6110e4565b348015610480575f5ffd5b5061021c61048f366004611662565b61111e565b34801561049f575f5ffd5b5061019e6104ae366004611523565b6112ec565b600480546040516307a9b2af60e21b81526001600160a01b03848116938201939093525f9290911690631ea6cabc906024015b602060405180830381865afa158015610501573d5f5f3e3d5ffd5b505050506040513d601f19601f82011682018060405250810190610525919061169d565b92915050565b600480546040516356bb7c5160e01b815233928101929092526060915f916001600160a01b0316906356bb7c5190602401602060405180830381865afa158015610577573d5f5f3e3d5ffd5b505050506040513d601f19601f8201168201806040525081019061059b919061169d565b6004805460405163e2ff7e9f60e01b81529293506001600160a01b03169163e2ff7e9f916105cf91859189918991016116dc565b5f60405180830381865afa1580156105e9573d5f5f3e3d5ffd5b505050506040513d5f823e601f3d908101601f1916820160405261061091908101906116fe565b949350505050565b61062061137a565b5f34116106655760405162461bcd60e51b815260206004820152600e60248201526d16995c9bc81c995c185e5b595b9d60921b60448201526064015b60405180910390fd5b600480546040516307a9b2af60e21b815233928101929092525f916001600160a01b0390911690631ea6cabc90602401602060405180830381865afa1580156106b0573d5f5f3e3d5ffd5b505050506040513d601f19601f820116820180604052508101906106d4919061169d565b90505f811161071b5760405162461bcd60e51b8152602060048201526013602482015272139bc81bdd5d1cdd185b991a5b99c81919589d606a1b604482015260640161065c565b6004805460405163047387bf60e31b815233928101929092523460248301526001600160a01b03169063239c3df8906044015f604051808303815f87803b158015610764575f5ffd5b505af1158015610776573d5f5f3e3d5ffd5b50506005546040515f93506001600160a01b03909116915034908381818185875af1925050503d805f81146107c6576040519150601f19603f3d011682016040523d82523d5f602084013e6107cb565b606091505b505090508061081c5760405162461bcd60e51b815260206004820152601760248201527f5472616e7366657220746f20706f6f6c206661696c6564000000000000000000604482015260640161065c565b60055460405163047387bf60e31b81523360048201523460248201526001600160a01b039091169063239c3df8906044015f604051808303815f87803b158015610864575f5ffd5b505af1158015610876573d5f5f3e3d5ffd5b50506040513481523392507f804ed17f8afea5d9c9f589f5be7ea6c10431bd97c639d8e92dca3ec85d1d0cec915060200160405180910390a250506108ba60018055565b565b600554604080516335c7e92560e01b815290515f926001600160a01b0316916335c7e9259160048083019260209291908290030181865afa158015610903573d5f5f3e3d5ffd5b505050506040513d601f19601f82011682018060405250810190610927919061169d565b905090565b600480546040516356bb7c5160e01b81526001600160a01b03848116938201939093525f92909116906356bb7c51906024016104e6565b61096b61137a565b600480546040516307a9b2af60e21b815233928101929092525f916001600160a01b0390911690631ea6cabc90602401602060405180830381865afa1580156109b6573d5f5f3e3d5ffd5b505050506040513d601f19601f820116820180604052508101906109da919061169d565b600254604051631e22f90160e01b815233600482015260248101859052604481018390529192506001600160a01b031690631e22f90190606401602060405180830381865afa158015610a2f573d5f5f3e3d5ffd5b505050506040513d601f19601f82011682018060405250810190610a539190611773565b610aae5760405162461bcd60e51b815260206004820152602660248201527f5769746864726177616c20776f756c642076696f6c617465206865616c7468206044820152653330b1ba37b960d11b606482015260840161065c565b6002546040516330897f1760e11b8152600481018490526001600160a01b0390911690636112fe2e906024015f604051808303815f87803b158015610af1575f5ffd5b505af1158015610b03573d5f5f3e3d5ffd5b5050505050610b1160018055565b50565b610b1c61137a565b60025f9054906101000a90046001600160a01b03166001600160a01b0316636f758140346040518263ffffffff1660e01b81526004015f604051808303818588803b158015610b69575f5ffd5b505af1158015610b7b573d5f5f3e3d5ffd5b50505050506108ba60018055565b610b916113a4565b6108ba5f6113d0565b60035460405163206edde960e21b81526001600160a01b03909116906381bb77a490610bce908690869086906004016116dc565b5f604051808303815f87803b158015610be5575f5ffd5b505af1158015610bf7573d5f5f3e3d5ffd5b50505050505050565b600480546040516356bb7c5160e01b815233928101929092526060915f916001600160a01b0316906356bb7c5190602401602060405180830381865afa158015610c4c573d5f5f3e3d5ffd5b505050506040513d601f19601f82011682018060405250810190610c70919061169d565b60048054604051635f1ce12d60e11b81529293506001600160a01b03169163be39c25a916105cf91859189918991016116dc565b600254604051639b56d6c960e01b81526001600160a01b0383811660048301525f921690639b56d6c9906024016104e6565b610cde61137a565b600554604051639c8f9f2360e01b8152600481018390526001600160a01b0390911690639c8f9f23906024015f604051808303815f87803b158015610d21575f5ffd5b505af1158015610d33573d5f5f3e3d5ffd5b50505050610b1160018055565b610d486113a4565b6001600160a01b038116610d905760405162461bcd60e51b815260206004820152600f60248201526e496e76616c6964206164647265737360881b604482015260640161065c565b60408051808201909152601181527021b7b63630ba32b930b626b0b730b3b2b960791b6020918201528251908301207f21f0c6a196c045f35e689d301a9631845ea0c27f2238a494cfecf597fbd1ddad01610e4c57600280546001600160a01b038381166001600160a01b031983168117909355604051911691908290610e18908690611792565b604051908190038120907fe5340bb646fa554a3082f7baa2b415eb1874ff7d4c3f118686180386e71f738e905f90a4505050565b60408051808201909152600d81526c43726564697453636f72696e6760981b6020918201528251908301207f069ce8f5d106884727669d61c8043b78bb1ad085c43adcc62fa6b286f557e81001610ed057600380546001600160a01b038381166001600160a01b031983168117909355604051911691908290610e18908690611792565b60408051808201909152600b81526a2637b0b726b0b730b3b2b960a91b6020918201528251908301207fa54070e732ddaf0f16ec5bd2fd2bda0ad1354e79ca3139ea968c139f8e94323801610f5257600480546001600160a01b038381166001600160a01b031983168117909355604051911691908290610e18908690611792565b60408051808201909152600d81526c131a5c5d5a591a5d1e541bdbdb609a1b6020918201528251908301207f26a6a63c5ec173ac2a8df3520641f971bbe0fb5abf759f47cf9eec47131cefe301610fd657600580546001600160a01b038381166001600160a01b031983168117909355604051911691908290610e18908690611792565b604051631bb2296560e31b815260040160405180910390fd5b60035460405163a787c80b60e01b81526001600160a01b0383811660048301525f92169063a787c80b90602401602060405180830381865afa158015611037573d5f5f3e3d5ffd5b505050506040513d601f19601f820116820180604052508101906105259190611773565b60035460405163ca0b74e160e01b81526001600160a01b039091169063ca0b74e190610bce908690869086906004016116dc565b61109761137a565b60055f9054906101000a90046001600160a01b03166001600160a01b031663e8078d94346040518263ffffffff1660e01b81526004015f604051808303818588803b158015610b69575f5ffd5b6110ec6113a4565b6001600160a01b03811661111557604051631e4fbdf760e01b81525f600482015260240161065c565b610b11816113d0565b61112661137a565b60048054604051633e70440960e21b81529182018590526024820184905260ff831660448301526001600160a01b03169063f9c11024906064015f604051808303815f87803b158015611177575f5ffd5b505af1158015611189573d5f5f3e3d5ffd5b5050600554604051635d84aa2b60e11b8152600481018690526001600160a01b03909116925063bb0954569150602401602060405180830381865afa1580156111d4573d5f5f3e3d5ffd5b505050506040513d601f19601f820116820180604052508101906111f89190611773565b6112445760405162461bcd60e51b815260206004820152601b60248201527f496e73756666696369656e7420706f6f6c206c69717569646974790000000000604482015260640161065c565b60055460405163b22d62f360e01b8152336004820152602481018490526001600160a01b039091169063b22d62f3906044015f604051808303815f87803b15801561128d575f5ffd5b505af115801561129f573d5f5f3e3d5ffd5b505060408051868152602081018690523393507f5660f932172e1664b98577a703dd9484d374b28e3bf8c87b345bee97af61241292500160405180910390a26112e760018055565b505050565b5f6112f561137a565b6004805460405163fea4147760e01b81526001600160a01b039091169163fea414779161132891889188918891016116dc565b6020604051808303815f875af1158015611344573d5f5f3e3d5ffd5b505050506040513d601f19601f82011682018060405250810190611368919061169d565b905061137360018055565b9392505050565b60026001540361139d57604051633ee5aeb560e01b815260040160405180910390fd5b6002600155565b5f546001600160a01b031633146108ba5760405163118cdaa760e01b815233600482015260240161065c565b5f80546001600160a01b038381166001600160a01b0319831681178455604051919092169283917f8be0079c531659141344cd1fd0a4f28419497f9722a3daafe3b4186f6b6457e09190a35050565b80356001600160a01b0381168114611435575f5ffd5b919050565b5f6020828403121561144a575f5ffd5b6113738261141f565b5f5f83601f840112611463575f5ffd5b50813567ffffffffffffffff81111561147a575f5ffd5b602083019150836020828501011115611491575f5ffd5b9250929050565b5f5f602083850312156114a9575f5ffd5b823567ffffffffffffffff8111156114bf575f5ffd5b6114cb85828601611453565b90969095509350505050565b602081525f82518060208401528060208501604085015e5f604082850101526040601f19601f83011684010191505092915050565b5f6020828403121561151c575f5ffd5b5035919050565b5f5f5f60408486031215611535575f5ffd5b83359250602084013567ffffffffffffffff811115611552575f5ffd5b61155e86828701611453565b9497909650939450505050565b634e487b7160e01b5f52604160045260245ffd5b604051601f8201601f1916810167ffffffffffffffff811182821017156115a8576115a861156b565b604052919050565b5f67ffffffffffffffff8211156115c9576115c961156b565b50601f01601f191660200190565b5f5f604083850312156115e8575f5ffd5b823567ffffffffffffffff8111156115fe575f5ffd5b8301601f8101851361160e575f5ffd5b803561162161161c826115b0565b61157f565b818152866020838501011115611635575f5ffd5b816020840160208301375f602083830101528094505050506116596020840161141f565b90509250929050565b5f5f5f60608486031215611674575f5ffd5b8335925060208401359150604084013560ff81168114611692575f5ffd5b809150509250925092565b5f602082840312156116ad575f5ffd5b5051919050565b81835281816020850137505f828201602090810191909152601f909101601f19169091010190565b838152604060208201525f6116f56040830184866116b4565b95945050505050565b5f6020828403121561170e575f5ffd5b815167ffffffffffffffff811115611724575f5ffd5b8201601f81018413611734575f5ffd5b805161174261161c826115b0565b818152856020838501011115611756575f5ffd5b8160208401602083015e5f91810160200191909152949350505050565b5f60208284031215611783575f5ffd5b81518015158114611373575f5ffd5b5f82518060208501845e5f92019182525091905056fea26469706673582212203f0654fc883181861302e2aa6445e297d8a06d2a2dcdfd3c1e723c34d7ae065764736f6c634300081c0033",
  "linkReferences": {},
  "deployedLinkReferences": {}
}