{
  "_format": "hh-sol-artifact-1",
  "contractName": "LiquidityPool",
  "sourceName": "src/modules/LiquidityPool.sol",
  "abi": [
    {
      "inputs": [],
      "stateMutability": "nonpayable",
      "type": "constructor"
    },
    {
      "inputs": [],
      "name": "InsufficientBalance",
      "type": "error"
    },
    {
      "inputs": [],
      "name": "InsufficientLiquidity",
      "type": "error"
    },
    {
      "inputs": [
        {
          "internalType": "address",
          "name": "owner",
          "type": "address"
        }
      ],
      "name": "OwnableInvalidOwner",
      "type": "error"
    },
    {
      "inputs": [
        {
          "internalType": "address",
          "name": "account",
          "type": "address"
        }
      ],
      "name": "OwnableUnauthorizedAccount",
      "type": "error"
    },
    {
      "inputs": [],
      "name": "ReentrancyGuardReentrantCall",
      "type": "error"
    },
    {
      "inputs": [],
      "name": "TransferFailed",
      "type": "error"
    },
    {
      "anonymous": false,
      "inputs": [
        {
          "indexed": true,
          "internalType": "address",
          "name": "provider",
          "type": "address"
        },
        {
          "indexed": false,
          "internalType": "uint256",
          "name": "amount",
          "type": "uint256"
        }
      ],
      "name": "LiquidityAdded",
      "type": "event"
    },
    {
      "anonymous": false,
      "inputs": [
        {
          "indexed": true,
          "internalType": "address",
          "name": "provider",
          "type": "address"
        },
        {
          "indexed": false,
          "internalType": "uint256",
          "name": "amount",
          "type": "uint256"
        }
      ],
      "name": "LiquidityRemoved",
      "type": "event"
    },
    {
      "anonymous": false,
      "inputs": [
        {
          "indexed": true,
          "internalType": "address",
          "name": "borrower",
          "type": "address"
        },
        {
          "indexed": false,
          "internalType": "uint256",
          "name": "amount",
          "type": "uint256"
        }
      ],
      "name": "LoanDisbursed",
      "type": "event"
    },
    {
      "anonymous": false,
      "inputs": [
        {
          "indexed": true,
          "internalType": "address",
          "name": "previousOwner",
          "type": "address"
        },
        {
          "indexed": true,
          "internalType": "address",
          "name": "newOwner",
          "type": "address"
        }
      ],
      "name": "OwnershipTransferred",
      "type": "event"
    },
    {
      "anonymous": false,
      "inputs": [
        {
          "indexed": true,
          "internalType": "address",
          "name": "borrower",
          "type": "address"
        },
        {
          "indexed": false,
          "internalType": "uint256",
          "name": "amount",
          "type": "uint256"
        }
      ],
      "name": "RepaymentReceived",
      "type": "event"
    },
    {
      "stateMutability": "payable",
      "type": "fallback"
    },
    {
      "inputs": [],
      "name": "addLiquidity",
      "outputs": [],
      "stateMutability": "payable",
      "type": "function"
    },
    {
      "inputs": [
        {
          "internalType": "address",
          "name": "",
          "type": "address"
        }
      ],
      "name": "authorizedContracts",
      "outputs": [
        {
          "internalType": "bool",
          "name": "",
          "type": "bool"
        }
      ],
      "stateMutability": "view",
      "type": "function"
    },
    {
      "inputs": [
        {
          "internalType": "address",
          "name": "borrower",
          "type": "address"
        },
        {
          "internalType": "uint256",
          "name": "amount",
          "type": "uint256"
        }
      ],
      "name": "disburseLoan",
      "outputs": [],
      "stateMutability": "nonpayable",
      "type": "function"
    },
    {
      "inputs": [],
      "name": "getTotalLiquidity",
      "outputs": [
        {
          "internalType": "uint256",
          "name": "",
          "type": "uint256"
        }
      ],
      "stateMutability": "view",
      "type": "function"
    },
    {
      "inputs": [],
      "name": "getTotalProvided",
      "outputs": [
        {
          "internalType": "uint256",
          "name": "",
          "type": "uint256"
        }
      ],
      "stateMutability": "view",
      "type": "function"
    },
    {
      "inputs": [
        {
          "internalType": "address",
          "name": "provider",
          "type": "address"
        }
      ],
      "name": "getUserLiquidity",
      "outputs": [
        {
          "internalType": "uint256",
          "name": "",
          "type": "uint256"
        }
      ],
      "stateMutability": "view",
      "type": "function"
    },
    {
      "inputs": [],
      "name": "getUtilizationRate",
      "outputs": [
        {
          "internalType": "uint256",
          "name": "",
          "type": "uint256"
        }
      ],
      "stateMutability": "view",
      "type": "function"
    },
    {
      "inputs": [
        {
          "internalType": "uint256",
          "name": "amount",
          "type": "uint256"
        }
      ],
      "name": "hasSufficientLiquidity",
      "outputs": [
        {
          "internalType": "bool",
          "name": "",
          "type": "bool"
        }
      ],
      "stateMutability": "view",
      "type": "function"
    },
    {
      "inputs": [],
      "name": "owner",
      "outputs": [
        {
          "internalType": "address",
          "name": "",
          "type": "address"
        }
      ],
      "stateMutability": "view",
      "type": "function"
    },
    {
      "inputs": [
        {
          "internalType": "address",
          "name": "borrower",
          "type": "address"
        },
        {
          "internalType": "uint256",
          "name": "amount",
          "type": "uint256"
        }
      ],
      "name": "recordRepayment",
      "outputs": [],
      "stateMutability": "nonpayable",
      "type": "function"
    },
    {
      "inputs": [
        {
          "internalType": "uint256",
          "name": "amount",
          "type": "uint256"
        }
      ],
      "name": "removeLiquidity",
      "outputs": [],
      "stateMutability": "nonpayable",
      "type": "function"
    },
    {
      "inputs": [],
      "name": "renounceOwnership",
      "outputs": [],
      "stateMutability": "nonpayable",
      "type": "function"
    },
    {
      "inputs": [
        {
          "internalType": "address",
          "name": "contractAddress",
          "type": "address"
        },
        {
          "internalType": "bool",
          "name": "authorized",
          "type": "bool"
        }
      ],
      "name": "setAuthorization",
      "outputs": [],
      "stateMutability": "nonpayable",
      "type": "function"
    },
    {
      "inputs": [
        {
          "internalType": "address",
          "name": "newOwner",
          "type": "address"
        }
      ],
      "name": "transferOwnership",
      "outputs": [],
      "stateMutability": "nonpayable",
      "type": "function"
    },
    {
      "stateMutability": "payable",
      "type": "receive"
    }
  ],
  "bytecode": "0x6080604052348015600e575f5ffd5b503380603357604051631e4fbdf760e01b81525f600482015260240160405180910390fd5b603a816043565b50600180556092565b5f80546001600160a01b038381166001600160a01b0319831681178455604051919092169283917f8be0079c531659141344cd1fd0a4f28419497f9722a3daafe3b4186f6b6457e09190a35050565b6109c98061009f5f395ff3fe6080604052600436106100d3575f3560e01c8063b22d62f311610078578063dbbdd93511610055578063dbbdd93514610213578063e8078d9414610247578063eecea0001461024f578063f2fde38b1461026e57005b8063b22d62f314610196578063bb095456146101b5578063d5b9221b146101e557005b80634a417a53116100b15780634a417a5314610129578063715018a61461013d5780638da5cb5b146101515780639c8f9f231461017757005b806318a2e6b3146100d5578063239c3df8146100f857806335c7e92514610117575b005b3480156100e0575f5ffd5b506003545b6040519081526020015b60405180910390f35b348015610103575f5ffd5b506100d3610112366004610860565b61028d565b348015610122575f5ffd5b50476100e5565b348015610134575f5ffd5b506100e561033a565b348015610148575f5ffd5b506100d361037a565b34801561015c575f5ffd5b505f546040516001600160a01b0390911681526020016100ef565b348015610182575f5ffd5b506100d3610191366004610888565b61038d565b3480156101a1575f5ffd5b506100d36101b0366004610860565b6104e1565b3480156101c0575f5ffd5b506101d56101cf366004610888565b47101590565b60405190151581526020016100ef565b3480156101f0575f5ffd5b506101d56101ff36600461089f565b60046020525f908152604090205460ff1681565b34801561021e575f5ffd5b506100e561022d36600461089f565b6001600160a01b03165f9081526002602052604090205490565b6100d3610694565b34801561025a575f5ffd5b506100d36102693660046108bf565b610734565b348015610279575f5ffd5b506100d361028836600461089f565b610766565b335f9081526004602052604090205460ff16806102b357505f546001600160a01b031633145b6102f35760405162461bcd60e51b815260206004820152600c60248201526b155b985d5d1a1bdc9a5e995960a21b60448201526064015b60405180910390fd5b816001600160a01b03167f98c4052bf152f27c1f28f1a5cfb4e4241fb491174d47ee4af9672cc5abda83ed8260405161032e91815260200190565b60405180910390a25050565b5f6003545f0361034957505f90565b5f47600354610358919061090c565b60035490915061036a82612710610925565b610374919061093c565b91505090565b6103826107a0565b61038b5f6107cc565b565b61039561081b565b5f81116103b45760405162461bcd60e51b81526004016102ea9061095b565b335f90815260026020526040902054808211156103e457604051631e9acf1760e31b815260040160405180910390fd5b478211156104055760405163bb55fd2760e01b815260040160405180910390fd5b61040f828261090c565b335f908152600260205260408120919091556003805484929061043390849061090c565b90915550506040515f90339084908381818185875af1925050503d805f8114610477576040519150601f19603f3d011682016040523d82523d5f602084013e61047c565b606091505b505090508061049e576040516312171d8360e31b815260040160405180910390fd5b60405183815233907fc2c3f06e49b9f15e7b4af9055e183b0d73362e033ad82a07dec9bf98401717199060200160405180910390a250506104de60018055565b50565b335f9081526004602052604090205460ff168061050757505f546001600160a01b031633145b6105425760405162461bcd60e51b815260206004820152600c60248201526b155b985d5d1a1bdc9a5e995960a21b60448201526064016102ea565b61054a61081b565b6001600160a01b0382166105935760405162461bcd60e51b815260206004820152601060248201526f24b73b30b634b2103137b93937bbb2b960811b60448201526064016102ea565b5f81116105b25760405162461bcd60e51b81526004016102ea9061095b565b478111156105d35760405163bb55fd2760e01b815260040160405180910390fd5b5f826001600160a01b0316826040515f6040518083038185875af1925050503d805f811461061c576040519150601f19603f3d011682016040523d82523d5f602084013e610621565b606091505b5050905080610643576040516312171d8360e31b815260040160405180910390fd5b826001600160a01b03167fc31bb806fcba2c023d34eac91b760422818e0446743a8ea9759932f9282c3ead8360405161067e91815260200190565b60405180910390a25061069060018055565b5050565b61069c61081b565b5f34116106bb5760405162461bcd60e51b81526004016102ea9061095b565b335f90815260026020526040812080543492906106d9908490610980565b925050819055503460035f8282546106f19190610980565b909155505060405134815233907fc17cea59c2955cb181b03393209566960365771dbba9dc3d510180e7cb3120889060200160405180910390a261038b60018055565b61073c6107a0565b6001600160a01b03919091165f908152600460205260409020805460ff1916911515919091179055565b61076e6107a0565b6001600160a01b03811661079757604051631e4fbdf760e01b81525f60048201526024016102ea565b6104de816107cc565b5f546001600160a01b0316331461038b5760405163118cdaa760e01b81523360048201526024016102ea565b5f80546001600160a01b038381166001600160a01b0319831681178455604051919092169283917f8be0079c531659141344cd1fd0a4f28419497f9722a3daafe3b4186f6b6457e09190a35050565b60026001540361083e57604051633ee5aeb560e01b815260040160405180910390fd5b6002600155565b80356001600160a01b038116811461085b575f5ffd5b919050565b5f5f60408385031215610871575f5ffd5b61087a83610845565b946020939093013593505050565b5f60208284031215610898575f5ffd5b5035919050565b5f602082840312156108af575f5ffd5b6108b882610845565b9392505050565b5f5f604083850312156108d0575f5ffd5b6108d983610845565b9150602083013580151581146108ed575f5ffd5b809150509250929050565b634e487b7160e01b5f52601160045260245ffd5b8181038181111561091f5761091f6108f8565b92915050565b808202811582820484141761091f5761091f6108f8565b5f8261095657634e487b7160e01b5f52601260045260245ffd5b500490565b6020808252600b908201526a16995c9bc8185b5bdd5b9d60aa1b604082015260600190565b8082018082111561091f5761091f6108f856fea26469706673582212202ba1d9fea17676ddb7aee36da9153a20d0fed872f541955823e6e623b24b8e9764736f6c634300081c0033",
  "linkReferences": {},
  "deployedLinkReferences": {}
}