{
  "_format": "hh-sol-artifact-1",
  "contractName": "LoanManager",
  "sourceName": "src/modules/LoanManager.sol",
  "abi": [
    {
      "inputs": [
        {
          "internalType": "address",
          "name": "_creditScoring",
          "type": "address"
        },
        {
          "internalType": "address",
          "name": "_collateralManager",
          "type": "address"
        }
      ],
      "stateMutability": "nonpayable",
      "type": "constructor"
    },
    {
      "inputs": [],
      "name": "AlreadyClaimed",
      "type": "error"
    },
    {
      "inputs": [],
      "name": "InvalidProof",
      "type": "error"
    },
    {
      "inputs": [],
      "name": "LoanNotFound",
      "type": "error"
    },
    {
      "inputs": [],
      "name": "NoRequest",
      "type": "error"
    },
    {
      "inputs": [],
      "name": "NotApproved",
      "type": "error"
    },
    {
      "inputs": [
        {
          "internalType": "address",
          "name": "owner",
          "type": "address"
        }
      ],
      "name": "OwnableInvalidOwner",
      "type": "error"
    },
    {
      "inputs": [
        {
          "internalType": "address",
          "name": "account",
          "type": "address"
        }
      ],
      "name": "OwnableUnauthorizedAccount",
      "type": "error"
    },
    {
      "inputs": [],
      "name": "ReentrancyGuardReentrantCall",
      "type": "error"
    },
    {
      "anonymous": false,
      "inputs": [
        {
          "indexed": true,
          "internalType": "address",
          "name": "user",
          "type": "address"
        },
        {
          "indexed": false,
          "internalType": "uint256",
          "name": "requestId",
          "type": "uint256"
        }
      ],
      "name": "LoanApproved",
      "type": "event"
    },
    {
      "anonymous": false,
      "inputs": [
        {
          "indexed": true,
          "internalType": "address",
          "name": "user",
          "type": "address"
        },
        {
          "indexed": false,
          "internalType": "uint256",
          "name": "requestId",
          "type": "uint256"
        },
        {
          "indexed": false,
          "internalType": "uint256",
          "name": "amount",
          "type": "uint256"
        }
      ],
      "name": "LoanClaimed",
      "type": "event"
    },
    {
      "anonymous": false,
      "inputs": [
        {
          "indexed": true,
          "internalType": "address",
          "name": "user",
          "type": "address"
        },
        {
          "indexed": false,
          "internalType": "uint256",
          "name": "requestId",
          "type": "uint256"
        }
      ],
      "name": "LoanRejected",
      "type": "event"
    },
    {
      "anonymous": false,
      "inputs": [
        {
          "indexed": true,
          "internalType": "address",
          "name": "user",
          "type": "address"
        },
        {
          "indexed": false,
          "internalType": "uint256",
          "name": "requestId",
          "type": "uint256"
        },
        {
          "indexed": false,
          "internalType": "uint256",
          "name": "timestamp",
          "type": "uint256"
        }
      ],
      "name": "LoanRequested",
      "type": "event"
    },
    {
      "anonymous": false,
      "inputs": [
        {
          "indexed": true,
          "internalType": "address",
          "name": "previousOwner",
          "type": "address"
        },
        {
          "indexed": true,
          "internalType": "address",
          "name": "newOwner",
          "type": "address"
        }
      ],
      "name": "OwnershipTransferred",
      "type": "event"
    },
    {
      "inputs": [],
      "name": "COLLATERAL_RATIO",
      "outputs": [
        {
          "internalType": "uint256",
          "name": "",
          "type": "uint256"
        }
      ],
      "stateMutability": "view",
      "type": "function"
    },
    {
      "inputs": [],
      "name": "MAX_RISK_SCORE",
      "outputs": [
        {
          "internalType": "uint16",
          "name": "",
          "type": "uint16"
        }
      ],
      "stateMutability": "view",
      "type": "function"
    },
    {
      "inputs": [
        {
          "internalType": "address",
          "name": "",
          "type": "address"
        }
      ],
      "name": "authorizedContracts",
      "outputs": [
        {
          "internalType": "bool",
          "name": "",
          "type": "bool"
        }
      ],
      "stateMutability": "view",
      "type": "function"
    },
    {
      "inputs": [
        {
          "internalType": "uint256",
          "name": "requestId",
          "type": "uint256"
        },
        {
          "internalType": "uint256",
          "name": "amountPlain",
          "type": "uint256"
        },
        {
          "internalType": "uint8",
          "name": "decryptedApproval",
          "type": "uint8"
        }
      ],
      "name": "claimLoan",
      "outputs": [],
      "stateMutability": "nonpayable",
      "type": "function"
    },
    {
      "inputs": [],
      "name": "collateralManager",
      "outputs": [
        {
          "internalType": "contract ICollateralManager",
          "name": "",
          "type": "address"
        }
      ],
      "stateMutability": "view",
      "type": "function"
    },
    {
      "inputs": [],
      "name": "creditScoring",
      "outputs": [
        {
          "internalType": "contract ICreditScoring",
          "name": "",
          "type": "address"
        }
      ],
      "stateMutability": "view",
      "type": "function"
    },
    {
      "inputs": [
        {
          "internalType": "address",
          "name": "user",
          "type": "address"
        },
        {
          "internalType": "uint256",
          "name": "requestId",
          "type": "uint256"
        }
      ],
      "name": "getApprovalStatus",
      "outputs": [
        {
          "internalType": "euint8",
          "name": "",
          "type": "bytes32"
        }
      ],
      "stateMutability": "view",
      "type": "function"
    },
    {
      "inputs": [
        {
          "internalType": "address",
          "name": "user",
          "type": "address"
        }
      ],
      "name": "getLatestRequestId",
      "outputs": [
        {
          "internalType": "uint256",
          "name": "",
          "type": "uint256"
        }
      ],
      "stateMutability": "view",
      "type": "function"
    },
    {
      "inputs": [
        {
          "internalType": "address",
          "name": "user",
          "type": "address"
        },
        {
          "internalType": "uint256",
          "name": "requestId",
          "type": "uint256"
        }
      ],
      "name": "getLoanAmount",
      "outputs": [
        {
          "internalType": "euint64",
          "name": "",
          "type": "bytes32"
        }
      ],
      "stateMutability": "view",
      "type": "function"
    },
    {
      "inputs": [
        {
          "internalType": "address",
          "name": "user",
          "type": "address"
        },
        {
          "internalType": "uint256",
          "name": "requestId",
          "type": "uint256"
        }
      ],
      "name": "getLoanRequestInfo",
      "outputs": [
        {
          "internalType": "enum ILoanManager.LoanStatus",
          "name": "status",
          "type": "uint8"
        },
        {
          "internalType": "bool",
          "name": "claimed",
          "type": "bool"
        },
        {
          "internalType": "uint256",
          "name": "createdAt",
          "type": "uint256"
        }
      ],
      "stateMutability": "view",
      "type": "function"
    },
    {
      "inputs": [
        {
          "internalType": "address",
          "name": "user",
          "type": "address"
        }
      ],
      "name": "getOutstandingDebt",
      "outputs": [
        {
          "internalType": "uint256",
          "name": "",
          "type": "uint256"
        }
      ],
      "stateMutability": "view",
      "type": "function"
    },
    {
      "inputs": [
        {
          "internalType": "address",
          "name": "",
          "type": "address"
        }
      ],
      "name": "latestRequestId",
      "outputs": [
        {
          "internalType": "uint256",
          "name": "",
          "type": "uint256"
        }
      ],
      "stateMutability": "view",
      "type": "function"
    },
    {
      "inputs": [
        {
          "internalType": "address",
          "name": "",
          "type": "address"
        }
      ],
      "name": "outstandingDebt",
      "outputs": [
        {
          "internalType": "uint256",
          "name": "",
          "type": "uint256"
        }
      ],
      "stateMutability": "view",
      "type": "function"
    },
    {
      "inputs": [],
      "name": "owner",
      "outputs": [
        {
          "internalType": "address",
          "name": "",
          "type": "address"
        }
      ],
      "stateMutability": "view",
      "type": "function"
    },
    {
      "inputs": [],
      "name": "protocolId",
      "outputs": [
        {
          "internalType": "uint256",
          "name": "",
          "type": "uint256"
        }
      ],
      "stateMutability": "pure",
      "type": "function"
    },
    {
      "inputs": [
        {
          "internalType": "address",
          "name": "borrower",
          "type": "address"
        },
        {
          "internalType": "uint256",
          "name": "amount",
          "type": "uint256"
        }
      ],
      "name": "recordRepayment",
      "outputs": [],
      "stateMutability": "nonpayable",
      "type": "function"
    },
    {
      "inputs": [
        {
          "internalType": "uint256",
          "name": "requestId",
          "type": "uint256"
        },
        {
          "internalType": "bytes",
          "name": "publicKey",
          "type": "bytes"
        }
      ],
      "name": "reencryptAmount",
      "outputs": [
        {
          "internalType": "bytes",
          "name": "",
          "type": "bytes"
        }
      ],
      "stateMutability": "view",
      "type": "function"
    },
    {
      "inputs": [
        {
          "internalType": "uint256",
          "name": "requestId",
          "type": "uint256"
        },
        {
          "internalType": "bytes",
          "name": "publicKey",
          "type": "bytes"
        }
      ],
      "name": "reencryptApproval",
      "outputs": [
        {
          "internalType": "bytes",
          "name": "",
          "type": "bytes"
        }
      ],
      "stateMutability": "view",
      "type": "function"
    },
    {
      "inputs": [],
      "name": "renounceOwnership",
      "outputs": [],
      "stateMutability": "nonpayable",
      "type": "function"
    },
    {
      "inputs": [
        {
          "internalType": "externalEuint64",
          "name": "amountHandle",
          "type": "bytes32"
        },
        {
          "internalType": "bytes",
          "name": "proof",
          "type": "bytes"
        }
      ],
      "name": "requestLoan",
      "outputs": [
        {
          "internalType": "uint256",
          "name": "requestId",
          "type": "uint256"
        }
      ],
      "stateMutability": "nonpayable",
      "type": "function"
    },
    {
      "inputs": [
        {
          "internalType": "address",
          "name": "contractAddress",
          "type": "address"
        },
        {
          "internalType": "bool",
          "name": "authorized",
          "type": "bool"
        }
      ],
      "name": "setAuthorization",
      "outputs": [],
      "stateMutability": "nonpayable",
      "type": "function"
    },
    {
      "inputs": [
        {
          "internalType": "address",
          "name": "newOwner",
          "type": "address"
        }
      ],
      "name": "transferOwnership",
      "outputs": [],
      "stateMutability": "nonpayable",
      "type": "function"
    }
  ],
  "bytecode": "0x608060405234801561000f575f5ffd5b5060405161162738038061162783398101604081905261002e9161027f565b336101a96100cd604080516080810182525f808252602082018190529181018290526060810191909152506040805160808101825273687820221192c5b662b25367f70076a37bc79b6c815273848b0066793bcc60346da1f49049357399b8d595602082015273a02cda4ca3a71d7c46997716f4283aa851c2881291810191909152731364cbbf2cdf5032c47d8226a6f6fbd2afcdacac606082015290565b80517f9e7b61f58c47dc699ac88507c4f5bb9f121c03808c5676a8078fe583e464970080546001600160a01b03199081166001600160a01b039384161790915560208301517f9e7b61f58c47dc699ac88507c4f5bb9f121c03808c5676a8078fe583e46497018054831691841691909117905560408301517f9e7b61f58c47dc699ac88507c4f5bb9f121c03808c5676a8078fe583e46497028054831691841691909117905560608301517f9e7b61f58c47dc699ac88507c4f5bb9f121c03808c5676a8078fe583e46497038054909216921691909117905550565b6001600160a01b0381166101d657604051631e4fbdf760e01b81525f600482015260240160405180910390fd5b6101df81610215565b5060018055600280546001600160a01b039384166001600160a01b031991821617909155600380549290931691161790556102b0565b5f80546001600160a01b038381166001600160a01b0319831681178455604051919092169283917f8be0079c531659141344cd1fd0a4f28419497f9722a3daafe3b4186f6b6457e09190a35050565b80516001600160a01b038116811461027a575f5ffd5b919050565b5f5f60408385031215610290575f5ffd5b61029983610264565b91506102a760208401610264565b90509250929050565b61136a806102bd5f395ff3fe608060405234801561000f575f5ffd5b506004361061013d575f3560e01c80639883688f116100b4578063da1f12ab11610079578063da1f12ab14610344578063e2ff7e9f146102ea578063eecea0001461034c578063f2fde38b1461035f578063f9c1102414610372578063fea4147714610385575f5ffd5b80639883688f146102c4578063a692d785146102d7578063be39c25a146102ea578063d5b9221b1461030a578063d9e69a051461033c575f5ffd5b806345f191311161010557806345f19131146101fa57806349645674146102165780634b8b319a1461027157806356bb7c5114610284578063715018a6146102ac5780638da5cb5b146102b4575f5ffd5b80630c912c2e146101415780631ea6cabc1461017357806320b9c82a1461019b578063239c3df8146101ba57806323be345c146101cf575b5f5ffd5b61016061014f366004611052565b60056020525f908152604090205481565b6040519081526020015b60405180910390f35b610160610181366004611052565b6001600160a01b03165f9081526006602052604090205490565b6101606101a9366004611052565b60066020525f908152604090205481565b6101cd6101c836600461106b565b610398565b005b6003546101e2906001600160a01b031681565b6040516001600160a01b03909116815260200161016a565b61020361025881565b60405161ffff909116815260200161016a565b61026261022436600461106b565b6001600160a01b03919091165f90815260046020908152604080832093835292905220600381015460029091015460ff808316936101009093041691565b60405161016a939291906110a7565b61016061027f36600461106b565b610497565b610160610292366004611052565b6001600160a01b03165f9081526005602052604090205490565b6101cd61050a565b5f546001600160a01b03166101e2565b6002546101e2906001600160a01b031681565b6101606102e536600461106b565b61051d565b6102fd6102f8366004611114565b61058a565b60405161016a919061118a565b61032c610318366004611052565b60086020525f908152604090205460ff1681565b604051901515815260200161016a565b61016060c881565b612711610160565b6101cd61035a3660046111a9565b6105e1565b6101cd61036d366004611052565b610613565b6101cd6103803660046111de565b610650565b610160610393366004611114565b610833565b335f9081526008602052604090205460ff16806103be57505f546001600160a01b031633145b6103fe5760405162461bcd60e51b815260206004820152600c60248201526b155b985d5d1a1bdc9a5e995960a21b60448201526064015b60405180910390fd5b6001600160a01b0382165f908152600660205260409020548061044d5760405162461bcd60e51b8152602060048201526007602482015266139bc81919589d60ca1b60448201526064016103f5565b80821061046f5750506001600160a01b03165f90815260066020526040812055565b610479828261122d565b6001600160a01b0384165f908152600660205260409020555b505050565b6001600160a01b0382165f90815260046020908152604080832084845290915281206002015481036104dc57604051630e7e621d60e01b815260040160405180910390fd5b506001600160a01b0382165f9081526004602090815260408083208484529091529020600101545b92915050565b610512610b93565b61051b5f610bbf565b565b6001600160a01b0382165f908152600460209081526040808320848452909152812060020154810361056257604051630e7e621d60e01b815260040160405180910390fd5b506001600160a01b03919091165f908152600460209081526040808320938352929052205490565b335f90815260046020908152604080832086845290915281206002810154606092036105c957604051630e7e621d60e01b815260040160405180910390fd5b505060408051602081019091525f81525b9392505050565b6105e9610b93565b6001600160a01b03919091165f908152600860205260409020805460ff1916911515919091179055565b61061b610b93565b6001600160a01b03811661064457604051631e4fbdf760e01b81525f60048201526024016103f5565b61064d81610bbf565b50565b610658610c0e565b335f9081526004602090815260408083208684529091528120600281015490910361069657604051630e7e621d60e01b815260040160405180910390fd5b6003810154610100900460ff16156106c157604051630c8d9eab60e31b815260040160405180910390fd5b8160ff166001146106e55760405163c19f17a960e01b815260040160405180910390fd5b600354604051639b56d6c960e01b81523360048201525f916001600160a01b031690639b56d6c990602401602060405180830381865afa15801561072b573d5f5f3e3d5ffd5b505050506040513d601f19601f8201168201806040525081019061074f9190611240565b335f908152600660205260408120549192509061076d908690611257565b90508161077b82600261126a565b11156107c95760405162461bcd60e51b815260206004820152601760248201527f496e73756666696369656e7420636f6c6c61746572616c00000000000000000060448201526064016103f5565b60038301805461010361ffff19909116179055335f8181526006602090815260409182902084905581518981529081018890527f5a44e54e6176ee37f7560c3927abc3a9ff36b91a4e176e99e4349d314f0b812b910160405180910390a250505061049260018055565b5f61083c610c0e565b60025460405163a787c80b60e01b81523360048201526001600160a01b039091169063a787c80b90602401602060405180830381865afa158015610882573d5f5f3e3d5ffd5b505050506040513d601f19601f820116820180604052508101906108a69190611281565b6108e65760405162461bcd60e51b81526020600482015260116024820152704e6f206372656469742070726f66696c6560781b60448201526064016103f5565b5f6109268585858080601f0160208091040260200160405190810160405280939291908181526020018383808284375f92019190915250610c3892505050565b905061093181610c45565b5060025460405163dc08706d60e01b81523360048201525f916001600160a01b03169063dc08706d90602401602060405180830381865afa158015610978573d5f5f3e3d5ffd5b505050506040513d601f19601f8201168201806040525081019061099c9190611240565b90505f6109b3826109ae610258610c54565b610c64565b600354604051639b56d6c960e01b81523360048201529192505f916001600160a01b0390911690639b56d6c990602401602060405180830381865afa1580156109fe573d5f5f3e3d5ffd5b505050506040513d601f19601f82011682018060405250810190610a229190611240565b90505f610a4183610a336001610c92565b610a3c5f610c92565b610ca1565b9050610a4c81610c45565b50610a578133610cb5565b50610a628533610cb5565b5060075f8154610a719061129c565b91905081905595506040518060a001604052808681526020018281526020014281526020015f6004811115610aa857610aa8611093565b81525f6020918201819052338152600480835260408083208b8452845291829020845181559284015160018481019190915591840151600284015560608401516003840180549193909260ff19909216918490811115610b0a57610b0a611093565b021790555060809190910151600390910180549115156101000261ff0019909216919091179055335f8181526005602052604090819020889055517f7468760830aff5679376e50470c0493d21c88c599388e89b08c9512b3f3fbc7d90610b7d9089904290918252602082015260400190565b60405180910390a250505050506105da60018055565b5f546001600160a01b0316331461051b5760405163118cdaa760e01b81523360048201526024016103f5565b5f80546001600160a01b038381166001600160a01b0319831681178455604051919092169283917f8be0079c531659141344cd1fd0a4f28419497f9722a3daafe3b4186f6b6457e09190a35050565b600260015403610c3157604051633ee5aeb560e01b815260040160405180910390fd5b6002600155565b5f6105da83836005610cc7565b5f610c508230610dd4565b5090565b5f6105048261ffff166003610e4a565b5f82610c7657610c735f610c54565b92505b81610c8757610c845f610c54565b91505b6105da83835f610eec565b5f6105048260ff166002610e4a565b5f610cad848484610fa1565b949350505050565b5f610cc08383610dd4565b5090919050565b7f9e7b61f58c47dc699ac88507c4f5bb9f121c03808c5676a8078fe583e46497015460405163196d0b9b60e01b81525f915f5160206113155f395f51905f52916001600160a01b039091169063196d0b9b90610d2d9088903390899089906004016112c8565b6020604051808303815f875af1158015610d49573d5f5f3e3d5ffd5b505050506040513d601f19601f82011682018060405250810190610d6d9190611240565b8154604051630f8e573b60e21b8152600481018390523360248201529193506001600160a01b031690633e395cec906044015f604051808303815f87803b158015610db6575f5ffd5b505af1158015610dc8573d5f5f3e3d5ffd5b50505050509392505050565b5f5f5160206113155f395f51905f528054604051635ca4b5b160e11b8152600481018690526001600160a01b03858116602483015292935091169063b9496b62906044015f604051808303815f87803b158015610e2f575f5ffd5b505af1158015610e41573d5f5f3e3d5ffd5b50505050505050565b7f9e7b61f58c47dc699ac88507c4f5bb9f121c03808c5676a8078fe583e464970154604051639cd07acb60e01b81525f915f5160206113155f395f51905f52916001600160a01b0390911690639cd07acb90610eac9087908790600401611300565b6020604051808303815f875af1158015610ec8573d5f5f3e3d5ffd5b505050506040513d601f19601f82011682018060405250810190610cad9190611240565b5f5f8215610eff5750600160f81b610f02565b505f5b5f5f5160206113155f395f51905f526001810154604051631d44e90160e21b815260048101899052602481018890526001600160f81b0319851660448201529192506001600160a01b031690637513a404906064016020604051808303815f875af1158015610f73573d5f5f3e3d5ffd5b505050506040513d601f19601f82011682018060405250810190610f979190611240565b9695505050505050565b5f805f5160206113155f395f51905f526001810154604051637702dcff60e01b81526004810188905260248101879052604481018690529192506001600160a01b031690637702dcff906064016020604051808303815f875af115801561100a573d5f5f3e3d5ffd5b505050506040513d601f19601f8201168201806040525081019061102e9190611240565b95945050505050565b80356001600160a01b038116811461104d575f5ffd5b919050565b5f60208284031215611062575f5ffd5b6105da82611037565b5f5f6040838503121561107c575f5ffd5b61108583611037565b946020939093013593505050565b634e487b7160e01b5f52602160045260245ffd5b60608101600585106110bb576110bb611093565b938152911515602083015260409091015290565b5f5f83601f8401126110df575f5ffd5b50813567ffffffffffffffff8111156110f6575f5ffd5b60208301915083602082850101111561110d575f5ffd5b9250929050565b5f5f5f60408486031215611126575f5ffd5b83359250602084013567ffffffffffffffff811115611143575f5ffd5b61114f868287016110cf565b9497909650939450505050565b5f81518084528060208401602086015e5f602082860101526020601f19601f83011685010191505092915050565b602081525f6105da602083018461115c565b801515811461064d575f5ffd5b5f5f604083850312156111ba575f5ffd5b6111c383611037565b915060208301356111d38161119c565b809150509250929050565b5f5f5f606084860312156111f0575f5ffd5b8335925060208401359150604084013560ff8116811461120e575f5ffd5b809150509250925092565b634e487b7160e01b5f52601160045260245ffd5b8181038181111561050457610504611219565b5f60208284031215611250575f5ffd5b5051919050565b8082018082111561050457610504611219565b808202811582820484141761050457610504611219565b5f60208284031215611291575f5ffd5b81516105da8161119c565b5f600182016112ad576112ad611219565b5060010190565b605481106112c4576112c4611093565b9052565b8481526001600160a01b03841660208201526080604082018190525f906112f19083018561115c565b905061102e60608301846112b4565b828152604081016105da60208301846112b456fe9e7b61f58c47dc699ac88507c4f5bb9f121c03808c5676a8078fe583e4649700a2646970667358221220780ec5900ec9515af14e4adf6a3e55b0325b7a54fb4171e56ea152e505edd7df64736f6c634300081c0033",
  "linkReferences": {},
  "deployedLinkReferences": {}
}